{
  "contractName": "CoffeeChain",
  "abi": [
    {
      "inputs": [],
      "stateMutability": "nonpayable",
      "type": "constructor"
    },
    {
      "inputs": [
        {
          "internalType": "uint256",
          "name": "",
          "type": "uint256"
        }
      ],
      "name": "coffees",
      "outputs": [
        {
          "internalType": "uint256",
          "name": "upc",
          "type": "uint256"
        },
        {
          "internalType": "address payable",
          "name": "producer",
          "type": "address"
        },
        {
          "internalType": "address payable",
          "name": "consumer",
          "type": "address"
        },
        {
          "internalType": "uint256",
          "name": "itemPrice",
          "type": "uint256"
        }
      ],
      "stateMutability": "view",
      "type": "function"
    },
    {
      "inputs": [],
      "name": "nextUpc",
      "outputs": [
        {
          "internalType": "uint256",
          "name": "",
          "type": "uint256"
        }
      ],
      "stateMutability": "view",
      "type": "function"
    },
    {
      "inputs": [
        {
          "internalType": "uint256",
          "name": "_price",
          "type": "uint256"
        }
      ],
      "name": "addCoffee",
      "outputs": [],
      "stateMutability": "nonpayable",
      "type": "function"
    },
    {
      "inputs": [
        {
          "internalType": "uint256",
          "name": "_upc",
          "type": "uint256"
        }
      ],
      "name": "getCoffee",
      "outputs": [
        {
          "internalType": "uint256",
          "name": "",
          "type": "uint256"
        },
        {
          "internalType": "address",
          "name": "",
          "type": "address"
        },
        {
          "internalType": "address",
          "name": "",
          "type": "address"
        },
        {
          "internalType": "uint256",
          "name": "",
          "type": "uint256"
        }
      ],
      "stateMutability": "view",
      "type": "function"
    },
    {
      "inputs": [
        {
          "internalType": "uint256",
          "name": "_upc",
          "type": "uint256"
        }
      ],
      "name": "buyCoffee",
      "outputs": [],
      "stateMutability": "payable",
      "type": "function"
    },
    {
      "inputs": [
        {
          "internalType": "uint256",
          "name": "_upc",
          "type": "uint256"
        }
      ],
      "name": "fetchItemBufferOne",
      "outputs": [
        {
          "internalType": "uint256",
          "name": "upc",
          "type": "uint256"
        },
        {
          "internalType": "address",
          "name": "producer",
          "type": "address"
        },
        {
          "internalType": "address",
          "name": "consumer",
          "type": "address"
        },
        {
          "internalType": "uint256",
          "name": "itemPrice",
          "type": "uint256"
        }
      ],
      "stateMutability": "view",
      "type": "function"
    },
    {
      "inputs": [
        {
          "internalType": "uint256",
          "name": "_upc",
          "type": "uint256"
        }
      ],
      "name": "fetchItemBufferTwo",
      "outputs": [
        {
          "internalType": "uint256",
          "name": "upc",
          "type": "uint256"
        },
        {
          "internalType": "address",
          "name": "producer",
          "type": "address"
        },
        {
          "internalType": "address",
          "name": "consumer",
          "type": "address"
        },
        {
          "internalType": "uint256",
          "name": "itemPrice",
          "type": "uint256"
        }
      ],
      "stateMutability": "view",
      "type": "function"
    }
  ],
  "bytecode": "0x608060405234801561001057600080fd5b5060018081905550610b55806100276000396000f3fe6080604052600436106100705760003560e01c8063af28ee351161004e578063af28ee3514610135578063b03b4a2914610160578063d2e4d96a1461017c578063e0a93fdf146101a557610070565b806366225ff91461007557806377c45913146100b5578063aa586704146100f5575b600080fd5b34801561008157600080fd5b5061009c60048036038101906100979190610822565b6101e5565b6040516100ac9493929190610962565b60405180910390f35b3480156100c157600080fd5b506100dc60048036038101906100d79190610822565b610292565b6040516100ec9493929190610962565b60405180910390f35b34801561010157600080fd5b5061011c60048036038101906101179190610822565b61033f565b60405161012c949392919061091d565b60405180910390f35b34801561014157600080fd5b5061014a6103af565b6040516101579190610902565b60405180910390f35b61017a60048036038101906101759190610822565b6103b5565b005b34801561018857600080fd5b506101a3600480360381019061019e9190610822565b6105d7565b005b3480156101b157600080fd5b506101cc60048036038101906101c79190610822565b610702565b6040516101dc9493929190610962565b60405180910390f35b60008060008060008086815260200190815260200160002060000154935060008086815260200190815260200160002060010160009054906101000a900473ffffffffffffffffffffffffffffffffffffffff16925060008086815260200190815260200160002060020160009054906101000a900473ffffffffffffffffffffffffffffffffffffffff1691506000808681526020019081526020016000206003015490509193509193565b60008060008060008086815260200190815260200160002060000154935060008086815260200190815260200160002060010160009054906101000a900473ffffffffffffffffffffffffffffffffffffffff16925060008086815260200190815260200160002060020160009054906101000a900473ffffffffffffffffffffffffffffffffffffffff1691506000808681526020019081526020016000206003015490509193509193565b60006020528060005260406000206000915090508060000154908060010160009054906101000a900473ffffffffffffffffffffffffffffffffffffffff16908060020160009054906101000a900473ffffffffffffffffffffffffffffffffffffffff16908060030154905084565b60015481565b6000806000838152602001908152602001600020604051806080016040529081600082015481526020016001820160009054906101000a900473ffffffffffffffffffffffffffffffffffffffff1673ffffffffffffffffffffffffffffffffffffffff1673ffffffffffffffffffffffffffffffffffffffff1681526020016002820160009054906101000a900473ffffffffffffffffffffffffffffffffffffffff1673ffffffffffffffffffffffffffffffffffffffff1673ffffffffffffffffffffffffffffffffffffffff1681526020016003820154815250509050600073ffffffffffffffffffffffffffffffffffffffff16816040015173ffffffffffffffffffffffffffffffffffffffff1614610509576040517f08c379a0000000000000000000000000000000000000000000000000000000008152600401610500906108e2565b60405180910390fd5b8060600151341015610550576040517f08c379a0000000000000000000000000000000000000000000000000000000008152600401610547906108c2565b60405180910390fd5b33816040019073ffffffffffffffffffffffffffffffffffffffff16908173ffffffffffffffffffffffffffffffffffffffff1681525050806020015173ffffffffffffffffffffffffffffffffffffffff166108fc349081150290604051600060405180830381858888f193505050501580156105d2573d6000803e3d6000fd5b505050565b6000604051806080016040528060015481526020013373ffffffffffffffffffffffffffffffffffffffff168152602001600073ffffffffffffffffffffffffffffffffffffffff1681526020018381525090508060008060015481526020019081526020016000206000820151816000015560208201518160010160006101000a81548173ffffffffffffffffffffffffffffffffffffffff021916908373ffffffffffffffffffffffffffffffffffffffff16021790555060408201518160020160006101000a81548173ffffffffffffffffffffffffffffffffffffffff021916908373ffffffffffffffffffffffffffffffffffffffff1602179055506060820151816003015590505060018060008282546106f791906109b8565b925050819055505050565b6000806000806000806000878152602001908152602001600020604051806080016040529081600082015481526020016001820160009054906101000a900473ffffffffffffffffffffffffffffffffffffffff1673ffffffffffffffffffffffffffffffffffffffff1673ffffffffffffffffffffffffffffffffffffffff1681526020016002820160009054906101000a900473ffffffffffffffffffffffffffffffffffffffff1673ffffffffffffffffffffffffffffffffffffffff1673ffffffffffffffffffffffffffffffffffffffff168152602001600382015481525050905080600001518160200151826040015183606001519450945094509450509193509193565b60008135905061081c81610b08565b92915050565b60006020828403121561083857610837610a8b565b5b60006108468482850161080d565b91505092915050565b61085881610a20565b82525050565b61086781610a0e565b82525050565b600061087a6014836109a7565b915061088582610a90565b602082019050919050565b600061089d6026836109a7565b91506108a882610ab9565b604082019050919050565b6108bc81610a52565b82525050565b600060208201905081810360008301526108db8161086d565b9050919050565b600060208201905081810360008301526108fb81610890565b9050919050565b600060208201905061091760008301846108b3565b92915050565b600060808201905061093260008301876108b3565b61093f602083018661084f565b61094c604083018561084f565b61095960608301846108b3565b95945050505050565b600060808201905061097760008301876108b3565b610984602083018661085e565b610991604083018561085e565b61099e60608301846108b3565b95945050505050565b600082825260208201905092915050565b60006109c382610a52565b91506109ce83610a52565b9250827fffffffffffffffffffffffffffffffffffffffffffffffffffffffffffffffff03821115610a0357610a02610a5c565b5b828201905092915050565b6000610a1982610a32565b9050919050565b6000610a2b82610a32565b9050919050565b600073ffffffffffffffffffffffffffffffffffffffff82169050919050565b6000819050919050565b7f4e487b7100000000000000000000000000000000000000000000000000000000600052601160045260246000fd5b600080fd5b7f496e73756666696369656e74207061796d656e74000000000000000000000000600082015250565b7f5468697320636f666665652068617320616c7265616479206265656e2070757260008201527f6368617365640000000000000000000000000000000000000000000000000000602082015250565b610b1181610a52565b8114610b1c57600080fd5b5056fea2646970667358221220a31f94a25630654e5475b68c3d6786ab978e22e5c28458199f7cc32d41f9554c64736f6c63430008070033",
  "immutableReferences": {},
  "source": "// SPDX-License-Identifier: MIT\r\npragma solidity ^0.8.7;\r\n\r\ncontract CoffeeChain {\r\n\r\n    struct Coffee {\r\n        uint upc;    // Universal Product Code\r\n        address payable producer;\r\n        address payable consumer;\r\n        uint itemPrice; // In wei, 1 ETH = 10^18 Wei\r\n    }\r\n\r\n    mapping(uint => Coffee) public coffees;\r\n    uint public nextUpc;\r\n\r\n    constructor() {\r\n        nextUpc = 1;\r\n    }\r\n\r\n    function addCoffee(uint _price) public {\r\n        Coffee memory newCoffee = Coffee({\r\n            upc: nextUpc,\r\n            producer: payable(msg.sender),\r\n            consumer: payable(address(0)),\r\n            itemPrice: _price\r\n        });\r\n        \r\n        coffees[nextUpc] = newCoffee;\r\n        nextUpc += 1;\r\n    }\r\n\r\n    function getCoffee(uint _upc) public view returns (uint, address, address, uint) {\r\n        Coffee memory coffee = coffees[_upc];\r\n        return (coffee.upc, coffee.producer, coffee.consumer, coffee.itemPrice);\r\n    }\r\n\r\n    function buyCoffee(uint _upc) public payable {\r\n        Coffee memory coffee = coffees[_upc];\r\n        require(coffee.consumer == address(0), \"This coffee has already been purchased\");\r\n        require(msg.value >= coffee.itemPrice, \"Insufficient payment\");\r\n        coffee.consumer = payable(msg.sender);\r\n        coffee.producer.transfer(msg.value);\r\n    }\r\n\r\n    function fetchItemBufferOne(uint _upc) public view returns (\r\n        uint upc,\r\n        address producer,\r\n        address consumer,\r\n        uint itemPrice\r\n    ) {\r\n        upc = coffees[_upc].upc;\r\n        producer = coffees[_upc].producer;\r\n        consumer = coffees[_upc].consumer;\r\n        itemPrice = coffees[_upc].itemPrice;\r\n    \r\n        return\r\n        (\r\n            upc,\r\n            producer,\r\n            consumer,\r\n            itemPrice\r\n        );\r\n    }\r\n\r\n    function fetchItemBufferTwo(uint _upc) public view returns (\r\n        uint upc,\r\n        address producer,\r\n        address consumer,\r\n        uint itemPrice\r\n    ) {\r\n        upc = coffees[_upc].upc;\r\n        producer = coffees[_upc].producer;\r\n        consumer = coffees[_upc].consumer;\r\n        itemPrice = coffees[_upc].itemPrice;\r\n    \r\n        return\r\n        (\r\n            upc,\r\n            producer,\r\n            consumer,\r\n            itemPrice\r\n        );\r\n    }\r\n}\r\n",
  "sourcePath": "C:\\Users\\Filip\\Downloads\\College\\Unsere_Blockchain_Projekt\\contracts\\CoffeeChain.sol",
  "compiler": {
    "name": "solc",
    "version": "0.8.7+commit.e28d00a7.Emscripten.clang"
  },
  "schemaVersion": "3.4.14",
  "updatedAt": "2023-06-08T10:06:29.265Z",
  "devdoc": {
    "kind": "dev",
    "methods": {},
    "version": 1
  },
  "userdoc": {
    "kind": "user",
    "methods": {},
    "version": 1
  }
}