{
  "contractName": "SupplyChain",
  "abi": [
    {
      "inputs": [],
      "stateMutability": "nonpayable",
      "type": "constructor"
    },
    {
      "inputs": [
        {
          "internalType": "uint256",
          "name": "",
          "type": "uint256"
        }
      ],
      "name": "items",
      "outputs": [
        {
          "internalType": "uint256",
          "name": "upc",
          "type": "uint256"
        },
        {
          "internalType": "string",
          "name": "itemType",
          "type": "string"
        },
        {
          "internalType": "address payable",
          "name": "producer",
          "type": "address"
        },
        {
          "internalType": "address payable",
          "name": "consumer",
          "type": "address"
        },
        {
          "internalType": "uint256",
          "name": "itemPrice",
          "type": "uint256"
        }
      ],
      "stateMutability": "view",
      "type": "function"
    },
    {
      "inputs": [],
      "name": "nextUpc",
      "outputs": [
        {
          "internalType": "uint256",
          "name": "",
          "type": "uint256"
        }
      ],
      "stateMutability": "view",
      "type": "function"
    },
    {
      "inputs": [
        {
          "internalType": "uint256",
          "name": "_price",
          "type": "uint256"
        },
        {
          "internalType": "string",
          "name": "itemType",
          "type": "string"
        }
      ],
      "name": "addItem",
      "outputs": [],
      "stateMutability": "nonpayable",
      "type": "function"
    },
    {
      "inputs": [
        {
          "internalType": "uint256",
          "name": "_upc",
          "type": "uint256"
        }
      ],
      "name": "getItem",
      "outputs": [
        {
          "internalType": "uint256",
          "name": "",
          "type": "uint256"
        },
        {
          "internalType": "string",
          "name": "",
          "type": "string"
        },
        {
          "internalType": "address",
          "name": "",
          "type": "address"
        },
        {
          "internalType": "address",
          "name": "",
          "type": "address"
        },
        {
          "internalType": "uint256",
          "name": "",
          "type": "uint256"
        }
      ],
      "stateMutability": "view",
      "type": "function"
    },
    {
      "inputs": [
        {
          "internalType": "uint256",
          "name": "_upc",
          "type": "uint256"
        }
      ],
      "name": "buyItem",
      "outputs": [],
      "stateMutability": "payable",
      "type": "function"
    },
    {
      "inputs": [
        {
          "internalType": "uint256",
          "name": "_upc",
          "type": "uint256"
        }
      ],
      "name": "fetchItemBufferOne",
      "outputs": [
        {
          "internalType": "uint256",
          "name": "upc",
          "type": "uint256"
        },
        {
          "internalType": "string",
          "name": "itemType",
          "type": "string"
        },
        {
          "internalType": "address",
          "name": "producer",
          "type": "address"
        },
        {
          "internalType": "address",
          "name": "consumer",
          "type": "address"
        },
        {
          "internalType": "uint256",
          "name": "itemPrice",
          "type": "uint256"
        }
      ],
      "stateMutability": "view",
      "type": "function"
    }
  ],
  "bytecode": "0x608060405234801561001057600080fd5b506001808190555061102c806100276000396000f3fe6080604052600436106100555760003560e01c80633129e7731461005a57806377c459131461009b578063af28ee35146100dc578063be572d5214610107578063bfb231d214610130578063e7fb74c714610171575b600080fd5b34801561006657600080fd5b50610081600480360381019061007c9190610ab6565b61018d565b604051610092959493929190610ca0565b60405180910390f35b3480156100a757600080fd5b506100c260048036038101906100bd9190610ab6565b610335565b6040516100d3959493929190610ca0565b60405180910390f35b3480156100e857600080fd5b506100f1610487565b6040516100fe9190610c2b565b60405180910390f35b34801561011357600080fd5b5061012e60048036038101906101299190610ae3565b61048d565b005b34801561013c57600080fd5b5061015760048036038101906101529190610ab6565b6105dc565b604051610168959493929190610c46565b60405180910390f35b61018b60048036038101906101869190610ab6565b6106da565b005b600060606000806000806000808881526020019081526020016000206040518060a0016040529081600082015481526020016001820180546101ce90610e52565b80601f01602080910402602001604051908101604052809291908181526020018280546101fa90610e52565b80156102475780601f1061021c57610100808354040283529160200191610247565b820191906000526020600020905b81548152906001019060200180831161022a57829003601f168201915b505050505081526020016002820160009054906101000a900473ffffffffffffffffffffffffffffffffffffffff1673ffffffffffffffffffffffffffffffffffffffff1673ffffffffffffffffffffffffffffffffffffffff1681526020016003820160009054906101000a900473ffffffffffffffffffffffffffffffffffffffff1673ffffffffffffffffffffffffffffffffffffffff1673ffffffffffffffffffffffffffffffffffffffff168152602001600482015481525050905080600001518160200151826040015183606001518460800151955095509550955095505091939590929450565b600060606000806000806000878152602001908152602001600020600001549450600080878152602001908152602001600020600101805461037690610e52565b80601f01602080910402602001604051908101604052809291908181526020018280546103a290610e52565b80156103ef5780601f106103c4576101008083540402835291602001916103ef565b820191906000526020600020905b8154815290600101906020018083116103d257829003601f168201915b5050505050935060008087815260200190815260200160002060020160009054906101000a900473ffffffffffffffffffffffffffffffffffffffff16925060008087815260200190815260200160002060030160009054906101000a900473ffffffffffffffffffffffffffffffffffffffff16915060008087815260200190815260200160002060040154905091939590929450565b60015481565b60006040518060a0016040528060015481526020018381526020013373ffffffffffffffffffffffffffffffffffffffff168152602001600073ffffffffffffffffffffffffffffffffffffffff16815260200184815250905080600080600154815260200190815260200160002060008201518160000155602082015181600101908051906020019061052292919061098e565b5060408201518160020160006101000a81548173ffffffffffffffffffffffffffffffffffffffff021916908373ffffffffffffffffffffffffffffffffffffffff16021790555060608201518160030160006101000a81548173ffffffffffffffffffffffffffffffffffffffff021916908373ffffffffffffffffffffffffffffffffffffffff1602179055506080820151816004015590505060018060008282546105d09190610d6c565b92505081905550505050565b600060205280600052604060002060009150905080600001549080600101805461060590610e52565b80601f016020809104026020016040519081016040528092919081815260200182805461063190610e52565b801561067e5780601f106106535761010080835404028352916020019161067e565b820191906000526020600020905b81548152906001019060200180831161066157829003601f168201915b5050505050908060020160009054906101000a900473ffffffffffffffffffffffffffffffffffffffff16908060030160009054906101000a900473ffffffffffffffffffffffffffffffffffffffff16908060040154905085565b60008060008381526020019081526020016000206040518060a00160405290816000820154815260200160018201805461071390610e52565b80601f016020809104026020016040519081016040528092919081815260200182805461073f90610e52565b801561078c5780601f106107615761010080835404028352916020019161078c565b820191906000526020600020905b81548152906001019060200180831161076f57829003601f168201915b505050505081526020016002820160009054906101000a900473ffffffffffffffffffffffffffffffffffffffff1673ffffffffffffffffffffffffffffffffffffffff1673ffffffffffffffffffffffffffffffffffffffff1681526020016003820160009054906101000a900473ffffffffffffffffffffffffffffffffffffffff1673ffffffffffffffffffffffffffffffffffffffff1673ffffffffffffffffffffffffffffffffffffffff1681526020016004820154815250509050600073ffffffffffffffffffffffffffffffffffffffff16816060015173ffffffffffffffffffffffffffffffffffffffff16146108c0576040517f08c379a00000000000000000000000000000000000000000000000000000000081526004016108b790610beb565b60405180910390fd5b8060800151341015610907576040517f08c379a00000000000000000000000000000000000000000000000000000000081526004016108fe90610c0b565b60405180910390fd5b33816060019073ffffffffffffffffffffffffffffffffffffffff16908173ffffffffffffffffffffffffffffffffffffffff1681525050806040015173ffffffffffffffffffffffffffffffffffffffff166108fc349081150290604051600060405180830381858888f19350505050158015610989573d6000803e3d6000fd5b505050565b82805461099a90610e52565b90600052602060002090601f0160209004810192826109bc5760008555610a03565b82601f106109d557805160ff1916838001178555610a03565b82800160010185558215610a03579182015b82811115610a025782518255916020019190600101906109e7565b5b509050610a109190610a14565b5090565b5b80821115610a2d576000816000905550600101610a15565b5090565b6000610a44610a3f84610d1f565b610cfa565b905082815260208101848484011115610a6057610a5f610f47565b5b610a6b848285610e10565b509392505050565b600082601f830112610a8857610a87610f42565b5b8135610a98848260208601610a31565b91505092915050565b600081359050610ab081610fdf565b92915050565b600060208284031215610acc57610acb610f51565b5b6000610ada84828501610aa1565b91505092915050565b60008060408385031215610afa57610af9610f51565b5b6000610b0885828601610aa1565b925050602083013567ffffffffffffffff811115610b2957610b28610f4c565b5b610b3585828601610a73565b9150509250929050565b610b4881610dd4565b82525050565b610b5781610dc2565b82525050565b6000610b6882610d50565b610b728185610d5b565b9350610b82818560208601610e1f565b610b8b81610f56565b840191505092915050565b6000610ba3602483610d5b565b9150610bae82610f67565b604082019050919050565b6000610bc6601483610d5b565b9150610bd182610fb6565b602082019050919050565b610be581610e06565b82525050565b60006020820190508181036000830152610c0481610b96565b9050919050565b60006020820190508181036000830152610c2481610bb9565b9050919050565b6000602082019050610c406000830184610bdc565b92915050565b600060a082019050610c5b6000830188610bdc565b8181036020830152610c6d8187610b5d565b9050610c7c6040830186610b3f565b610c896060830185610b3f565b610c966080830184610bdc565b9695505050505050565b600060a082019050610cb56000830188610bdc565b8181036020830152610cc78187610b5d565b9050610cd66040830186610b4e565b610ce36060830185610b4e565b610cf06080830184610bdc565b9695505050505050565b6000610d04610d15565b9050610d108282610e84565b919050565b6000604051905090565b600067ffffffffffffffff821115610d3a57610d39610f13565b5b610d4382610f56565b9050602081019050919050565b600081519050919050565b600082825260208201905092915050565b6000610d7782610e06565b9150610d8283610e06565b9250827fffffffffffffffffffffffffffffffffffffffffffffffffffffffffffffffff03821115610db757610db6610eb5565b5b828201905092915050565b6000610dcd82610de6565b9050919050565b6000610ddf82610de6565b9050919050565b600073ffffffffffffffffffffffffffffffffffffffff82169050919050565b6000819050919050565b82818337600083830152505050565b60005b83811015610e3d578082015181840152602081019050610e22565b83811115610e4c576000848401525b50505050565b60006002820490506001821680610e6a57607f821691505b60208210811415610e7e57610e7d610ee4565b5b50919050565b610e8d82610f56565b810181811067ffffffffffffffff82111715610eac57610eab610f13565b5b80604052505050565b7f4e487b7100000000000000000000000000000000000000000000000000000000600052601160045260246000fd5b7f4e487b7100000000000000000000000000000000000000000000000000000000600052602260045260246000fd5b7f4e487b7100000000000000000000000000000000000000000000000000000000600052604160045260246000fd5b600080fd5b600080fd5b600080fd5b600080fd5b6000601f19601f8301169050919050565b7f54686973206974656d2068617320616c7265616479206265656e20707572636860008201527f6173656400000000000000000000000000000000000000000000000000000000602082015250565b7f496e73756666696369656e74207061796d656e74000000000000000000000000600082015250565b610fe881610e06565b8114610ff357600080fd5b5056fea2646970667358221220f5175183fb6f89d20405861d65adf6d605f700c809e900e42c9da15c3000b81e64736f6c63430008070033",
  "immutableReferences": {},
  "source": "// SPDX-License-Identifier: MIT\npragma solidity ^0.8.7;\n\ncontract SupplyChain {\n\n    struct Item {\n        uint upc;    // Universal Product Code\n        string itemType;\n        address payable producer;\n        address payable consumer;\n        uint itemPrice; // In wei, 1 ETH = 10^18 Wei\n    }\n\n    mapping(uint => Item) public items;\n    uint public nextUpc;\n\n    constructor() {\n        nextUpc = 1;\n    }\n\n    function addItem(uint _price, string memory itemType) public {\n        Item memory newItem = Item({\n            upc: nextUpc,\n            itemType: itemType,\n            producer: payable(msg.sender),\n            consumer: payable(address(0)),\n            itemPrice: _price\n        });\n        \n        items[nextUpc] = newItem;\n        nextUpc += 1;\n    }\n\n    function getItem(uint _upc) public view returns (uint, string memory, address, address, uint) {\n        Item memory item = items[_upc];\n        return (item.upc, item.itemType, item.producer, item.consumer, item.itemPrice);\n    }\n\n    function buyItem(uint _upc) public payable {\n        Item memory item = items[_upc];\n        require(item.consumer == address(0), \"This item has already been purchased\");\n        require(msg.value >= item.itemPrice, \"Insufficient payment\");\n        item.consumer = payable(msg.sender);\n        item.producer.transfer(msg.value);\n    }\n\n    function fetchItemBufferOne(uint _upc) public view returns (\n        uint upc,\n        string memory itemType,\n        address producer,\n        address consumer,\n        uint itemPrice\n    ) {\n        upc = items[_upc].upc;\n        itemType = items[_upc].itemType;\n        producer = items[_upc].producer;\n        consumer = items[_upc].consumer;\n        itemPrice = items[_upc].itemPrice;\n    \n        return\n        (\n            upc,\n            itemType,\n            producer,\n            consumer,\n            itemPrice\n        );\n    }\n}\n",
  "sourcePath": "/Users/domagojbunoza/Desktop/FERIT/Blockchain/coffee-blockchain/contracts/SupplyChain.sol",
  "compiler": {
    "name": "solc",
    "version": "0.8.7+commit.e28d00a7.Emscripten.clang"
  },
  "schemaVersion": "3.4.14",
  "updatedAt": "2023-06-10T12:03:45.570Z",
  "devdoc": {
    "kind": "dev",
    "methods": {},
    "version": 1
  },
  "userdoc": {
    "kind": "user",
    "methods": {},
    "version": 1
  }
}